:020000040000FA
:100000000C9470010C94E8080C94BD080C949208B0
:100010000C9467080C943C080C9411080C94E607A7
:100020000C94BB070C9473090C9473090C9473091A
:100030000C94A1010C94A1010C94A1010C94A101B8
:100040000C94A1010C94A1010C94A1010C94A101A8
:100050000C94A1010C94A1010C94A1010C947107C2
:100060000C94A1010C943D090C9413090C94A1016A
:100070000C94A1010C94A1010C94A1010C94A10178
:100080000C94A1010C94A1010C94A1010C94A10168
:100090000C94A1010C94A1010C94A1010C94A10158
:1000A0000C94A1010C94A1010C94A1010C94A10148
:1000B0000C94A1010C94A1010C94A1010C94A10138
:1000C0000C94A1010C94A1010C94A1010C94A10128
:1000D0000C94A1010C94A1010C94A1010C94A10118
:1000E0000C94A1010C94F4010C9451060C94CC03D3
:1000F0000C9439050C9461060C94C4040C94DC0136
:100100000C9405030C9432030C9419030C946403AF
:100110000C9401020C9473040C9459060C94D301B2
:100120000C943C030C94EA010C94E6010C94540AE0
:100130000C9490030C9446030C94CB010C94230371
:100140000C94CA020C94E0010C9449060C94340AF5
:100150000C94C7010C94DD040C94D7020C94EE01AE
:100160000C9470050C94F8010C94FD020C94BD03E2
:100170000C945A030C94E1020C944F050C94E00388
:100180000C948F030C94CF010C94FC010C9450033D
:100190000C94DC040C9426040C9406020C940F03BB
:1001A0000C9402020C94C1010C94D6010C94EE0341
:1001B0000C94EB020C94F5020C94D2020000210086
:1001C000240027002A002D00300033000101000028
:1001D000040107010A0100000A0B02090C0D0E08B8
:1001E0000703040100000000000000000000000000
:1001F00000000000000000000000000000000000FF
:1002000000001211100000000000000000000000BB
:1002100000000000000000000000000000002000BE
:100220002300260029002C002F00320000010000CE
:1002300003010601090100002200250028002B000F
:100240002E003100340002010000050108010B01FD
:1002500005050505070508080808020202020A0A42
:100260000808040404040101010101010101030360
:10027000030303030303040707070C0C0C0C0C0C0B
:100280000C0C0202020206060606060606060B0B08
:100290000B0B0B0B0B0B0102102020080810204049
:1002A000102040800201020108040201010204083A
:1002B00010204080804020100804020180040201C8
:1002C0008040201008040201080402010102040811
:1002D000102040800102040810204080540A340A93
:1002E00011241FBECFEFD1E2DEBFCDBF00E00CBFB7
:1002F00024E0AAE5B2E001C01D92A532B207E1F701
:1003000012E0A0E0B2E0E0E1FBE200E00BBF02C0DF
:1003100007900D92AA35B107D9F711E0CFE6D1E0E9
:1003200000E006C021970109802FFE010E945813AA
:10033000CE36D10780E00807A9F70E940E0B0C9477
:1003400076150C9400008150823108F05AC0E82FD5
:10035000F0E08827E155FE4F8F4F0C945813CF01E2
:10036000D301C101C701CB010102D601DC01E001CB
:10037000E601EA01EE01F401F8010102FC010202CA
:100380000602809180008F7780938000089580918D
:1003900080008F7DF9CF80918000877FF5CF84B575
:1003A0008F7784BD089584B58F7DFBCF8091B00099
:1003B0008F778093B00008958091B0008F7DF9CF42
:1003C000809190008F7780939000089580919000A5
:1003D0008F7DF9CF80919000877FF5CF8091A0002D
:1003E0008F778093A00008958091A0008F7DF9CF32
:1003F0008091A000877FF5CF809120018F77809337
:1004000020010895809120018F7DF9CF80912001F6
:10041000877FF5CFCF93DF93282F30E0F901EA52A1
:10042000FE4F8491F901EA56FD4FD491F901E05B4A
:10043000FD4FC491CC23A1F081110E94A301EC2FA8
:10044000F0E0EE0FFF1FE45EFD4FA591B491EC913B
:10045000ED2381E090E009F480E0DF91CF910895F1
:1004600080E090E0FACF1F93CF93DF93282F30E006
:10047000F901EA52FE4F8491F901EA56FD4FD491F9
:10048000F901E05BFD4FC491CC23A9F0162F811137
:100490000E94A301EC2FF0E0EE0FFF1FEA5CFD4F7E
:1004A000A591B4918FB7F894EC91111108C0D09533
:1004B000DE23DC938FBFDF91CF911F910895DE2B58
:1004C000F8CFCF93DF9390E0FC01EA56FD4F2491E3
:1004D000805B9D4FFC0184918823D1F090E0880FD0
:1004E000991FFC01E454FE4FA591B491FC01EA5C14
:1004F000FD4FC591D49161110EC09FB7F8948C91B6
:10050000E22FE0958E238C932881E223E8839FBF1E
:10051000DF91CF9108958FB7F894EC91E22BEC9393
:100520008FBFF6CF1F93CF93DF93182FEB0161E0BE
:100530000E946102209739F460E0812FDF91CF9112
:100540001F910C943302CF3FD10511F461E0F5CF38
:10055000E12FF0E0EA52FE4FE491E150E23108F081
:10056000B3C0F0E08827E854FD4F8F4F0C94581328
:10057000CA02D202D702E102EB026403F502FD02D5
:1005800005030F031903230332033C0364034603EB
:1005900050035A0384B5806884BDC7BDDF91CF91F5
:1005A0001F91089584B5806284BDC8BDF7CF809146
:1005B0008000806880938000D0938900C093880079
:1005C000EDCF80918000806280938000D0938B007B
:1005D000C0938A00E3CF8091800088608093800080
:1005E000D0938D00C0938C00D9CF8091B0008068EB
:1005F0008093B000C093B300D1CF8091B0008062EF
:100600008093B000C093B400C9CF809190008068FF
:1006100080939000D0939900C0939800BFCF8091B1
:100620009000806280939000D0939B00C0939A00CA
:10063000B5CF80919000886080939000D0939D000A
:10064000C0939C00ABCF8091A00080688093A000F5
:100650008091A0008F7B8093A000D093A900C093CD
:10066000A8009CCF8091A00080628093A000D093CE
:10067000AB00C093AA0092CF8091A00088608093C5
:10068000A000D093AD00C093AC0088CF8091200132
:10069000806880932001D0932901C09328017ECFE8
:1006A00080912001806280932001D0932B01C09320
:1006B0002A0174CF80912001886080932001D0931B
:1006C0002D01C0932C016ACFC038D1050CF03ECF6C
:1006D00033CF3FB7F8948091590390915A03A0917A
:1006E0005B03B0915C0326B5A89B05C02F3F19F0B2
:1006F0000196A11DB11D3FBFBA2FA92F982F8827A2
:10070000BC01CD01620F711D811D911D42E0660F7C
:10071000771F881F991F4A95D1F708950895089566
:10072000AF92BF92CF92DF92EF92FF920F931F93FF
:10073000CF93DF936C017B018B01040F151FEB013D
:100740005E01AE18BF08C017D10759F06991D601F4
:10075000ED91FC910190F081E02DC6011995892B56
:1007600079F7C501DF91CF911F910F91FF90EF9025
:10077000DF90CF90BF90AF900895FC01538D448DD2
:10078000252F30E0842F90E0821B930B541710F03C
:10079000CF96089501970895FC01918D828D981749
:1007A00061F0A28DAE0FBF2FB11D5D968C91928D21
:1007B0009F5F9F73928F90E008958FEF9FEF089552
:1007C000FC01918D828D981731F0828DE80FF11D1B
:1007D000858D90E008958FEF9FEF0895FC01918D36
:1007E000228D892F90E0805C9F4F821B91098F732F
:1007F000992708958DE593E00E94EE0321E0892B6F
:1008000009F420E0822F0895FC01A48DA80FB92FD0
:10081000B11DA35ABF4F2C91848D90E001968F7328
:100820009927848FA689B7892C93A089B1898C9147
:10083000837080648C93938D848D981306C0028896
:10084000F389E02D80818F7D80830895EF92FF9260
:100850000F931F93CF93DF93EC0181E0888F9B8DE3
:100860008C8D98131AC0E889F989808185FF15C09D
:100870009FB7F894EE89FF896083E889F9898081C0
:100880008370806480839FBF81E090E0DF91CF918F
:100890001F910F91FF90EF900895F62E0B8D10E0B1
:1008A0000F5F1F4F0F731127E02E8C8D8E110CC020
:1008B0000FB607FCFACFE889F989808185FFF5CF6B
:1008C000CE010E940404F1CFEB8DEC0FFD2FF11D42
:1008D000E35AFF4FF0829FB7F8940B8FEA89FB89A8
:1008E00080818062CFCFCF93DF93EC01888D882306
:1008F000B9F0AA89BB89E889F9898C9185FD03C083
:10090000808186FD0DC00FB607FCF7CF8C9185FF67
:10091000F2CF808185FFEDCFCE010E940404E9CFA4
:10092000DF91CF91089580E090E0892B29F00E941B
:10093000FA0381110E94000080E090E0892B49F0C9
:1009400080E090E0892B29F00E94000081110E9434
:10095000000080E090E0892B49F080E090E0892B56
:1009600029F00E94000081110E94000080E090E0C8
:10097000892B49F080E090E0892B29F00E9400004B
:1009800081110C940000089520910004309101041D
:100990002817390771F490919A0280919B02981759
:1009A00041F0E0919A02F0E0E65AFD4F808190E03C
:1009B00008958FEF9FEF08950895EF92FF920F93A0
:1009C0001F93CF93DF93DC015C96ED90FC905D97D5
:1009D000E114F10479F481E090E013969C938E93F6
:1009E000129790E080E0DF91CF911F910F91FF90DF
:1009F000EF9008955196ED91FC91529750968C91FD
:100A00005097982F90950FB75E962C915E97122F66
:100A1000127021FD6095F8942081112319F1282B83
:100A20002083E7012197F1F728E0462F50E030813D
:100A300060FF1AC0382B3083E7012197F1F7BA0124
:100A400075956795215089F7112381F0808189235D
:100A500080830FBF5C968D919C910197F1F781E0A7
:100A600090E0C1CF2923DCCF3923E5CF9081892BBA
:100A7000EFCF20910004309101042817390761F469
:100A800080919B0220919A0290E0805C9F4F821B94
:100A900091098F739927089590E080E0089520913F
:100AA00000043091010428173907B9F490919A0293
:100AB00080919B02981789F0E0919A02F0E0E65A43
:100AC000FD4F808120919A0230E02F5F3F4F2F73BE
:100AD000332720939A0290E008958FEF9FEF0895B7
:100AE00090E080E00895FC01461B570B5183408342
:100AF00022813381CA01821B930B97838683821BD9
:100B0000930B64817581860F971F9187808735834A
:100B10002483538342830895FF920F931F93CF93AF
:100B2000DF9300D000D0CDB7DEB78C01962F872F92
:100B3000F8012089318964857585260F371F37872D
:100B40002687B9012635FFEF3F0714F466E57FEFEE
:100B50006B3A710514F06AEA70E049835A839B830B
:100B60008C83842FF92E37FD18C00E94920270E00A
:100B700060E08F2D0E949202F80186859785918B07
:100B8000808B26960FB6F894DEBF0FBECDBFDF91E7
:100B9000CF911F910F91FF90089561507F4F0E9458
:100BA00092026FEF70E0E5CFCF92DF92EF92FF926B
:100BB0000F931F93CF93DF93EC018B01FB016681B1
:100BC0007781072E000C880B990B0E949A112881BF
:100BD00039814A815B810E94D5116B017C01F8014A
:100BE00060817181072E000C880B990B0E949A116D
:100BF0002C813D814E815F810E94D5119B01AC010A
:100C0000C701B6010E9494126B017C01F801608556
:100C10007185072E000C880B990B0E949A1128856C
:100C200039854A855B850E94D5119B01AC01C701BE
:100C3000B6010E9494120E9400137D876C87DF9199
:100C4000CF911F910F91FF90EF90DF90CF9008957B
:100C50001F93CF93DF93EC01162F842F0E940A027B
:100C6000019771F4812F0E940A02892B71F4888107
:100C70009981019699838883DF91CF911F9108957F
:100C8000812F0E940A02019791F38881998101972F
:100C9000F1CF48E150E062E070E083E493E00C942F
:100CA000280649E150E063E070E081E493E00C94B1
:100CB00028064AE150E062E170E08FE393E00C9493
:100CC00028064BE150E063E170E08DE393E00C9483
:100CD0002806FC0101900020E9F73197AF01481B7D
:100CE000590BBC018DE593E00C9490038F929F9279
:100CF000AF92BF92CF92DF92EF92FF920F931F932A
:100D0000CF93DF93CDB7DEB7A1970FB6F894DEBFD0
:100D10000FBECDBF6C01990FEE08FF08F7FE47C06C
:100D20006DE28DE593E00E9426048C012227332793
:100D3000A9012C193D094E095F0919A2CE0181961E
:100D40007C019AE0892E912CA12CB12CCA01B90109
:100D5000A50194010E943613605DF70162937F0143
:100D6000211531054105510589F790E080E0309764
:100D700019F0CF010E946906080F191F8AE392E05B
:100D80000E946906800F911FA1960FB6F894DEBFEE
:100D90000FBECDBFDF91CF911F910F91FF90EF90CC
:100DA000DF90CF90BF90AF909F908F900895A70154
:100DB000960119A28E010F5D1F4F8AE0C82ED12C1B
:100DC000E12CF12CCA01B901A70196010E9436134A
:100DD000605DF80162938F012115310541055105D0
:100DE00089F7309729F0CF010E9469068C01C6CFA0
:100DF00010E000E0C3CFCF93DF93FC014481558125
:100E0000608171818DE593E00E949003EC018AE39B
:100E100092E00E9469068C0F9D1FDF91CF9108958B
:100E2000FC0180819181009711F00C94FC130895CE
:100E30000F931F93CF93DF93EC01888199810097E3
:100E400059F02A813B812617370730F081E0DF9186
:100E5000CF911F910F9108958B016F5F7F4F0E947B
:100E60008514009759F0998388831B830A832C810A
:100E70003D81232B59F7FC011082E8CF80E0E7CFBA
:100E8000EF92FF920F931F93CF93DF93EC017B01BF
:100E90008A01BA010E94180728813981811114C082
:100EA0002115310519F0C9010E94FC13198218821D
:100EB0001D821C821B821A82CE01DF91CF911F916D
:100EC0000F91FF90EF9008951D830C83B701C90126
:100ED0000E946F15F1CF50E040E06CE372E00C949B
:100EE00040071F920F920FB60F9211242F933F933A
:100EF0008F939F93AF93BF93809155039091560327
:100F0000A0915703B09158033091540323E0230F6D
:100F10002D3758F50196A11DB11D209354038093E0
:100F2000550390935603A0935703B09358038091B1
:100F3000590390915A03A0915B03B0915C03019611
:100F4000A11DB11D8093590390935A03A0935B0395
:100F5000B0935C03BF91AF919F918F913F912F917F
:100F60000F900FBE0F901F90189526E8230F029642
:100F7000A11DB11DD2CF1F920F920FB60F92112457
:100F80000BB60F922F933F934F935F936F937F9383
:100F90008F939F93AF93BF93EF93FF93E0910E02D4
:100FA000F0910F021995FF91EF91BF91AF919F9131
:100FB0008F917F916F915F914F913F912F910F9002
:100FC0000BBE0F900FBE0F901F9018951F920F929F
:100FD0000FB60F9211240BB60F922F933F934F939E
:100FE0005F936F937F938F939F93AF93BF93EF9391
:100FF000FF93E0910C02F0910D021995FF91EF9192
:10100000BF91AF919F918F917F916F915F914F9120
:101010003F912F910F900BBE0F900FBE0F901F901E
:1010200018951F920F920FB60F9211240BB60F92C4
:101030002F933F934F935F936F937F938F939F93E0
:10104000AF93BF93EF93FF93E0910202F0910302FD
:101050001995FF91EF91BF91AF919F918F917F91E2
:101060006F915F914F913F912F910F900BBE0F9019
:101070000FBE0F901F9018951F920F920FB60F92F0
:1010800011240BB60F922F933F934F935F936F935F
:101090007F938F939F93AF93BF93EF93FF93E091D1
:1010A0000002F09101021995FF91EF91BF91AF916C
:1010B0009F918F917F916F915F914F913F912F9170
:1010C0000F900BBE0F900FBE0F901F9018951F92A0
:1010D0000F920FB60F9211240BB60F922F933F93DE
:1010E0004F935F936F937F938F939F93AF93BF9330
:1010F000EF93FF93E0910A02F0910B021995FF9193
:10110000EF91BF91AF919F918F917F916F915F917F
:101110004F913F912F910F900BBE0F900FBE0F90EC
:101120001F9018951F920F920FB60F9211240BB6B5
:101130000F922F933F934F935F936F937F938F9370
:101140009F93AF93BF93EF93FF93E0910802F091C9
:1011500009021995FF91EF91BF91AF919F918F91E6
:101160007F916F915F914F913F912F910F900BBEA7
:101170000F900FBE0F901F9018951F920F920FB6F1
:101180000F9211240BB60F922F933F934F935F93BF
:101190006F937F938F939F93AF93BF93EF93FF933F
:1011A000E0910602F09107021995FF91EF91BF912E
:1011B000AF919F918F917F916F915F914F913F91EF
:1011C0002F910F900BBE0F900FBE0F901F90189590
:1011D0001F920F920FB60F9211240BB60F922F93FE
:1011E0003F934F935F936F937F938F939F93AF93AF
:1011F000BF93EF93FF93E0910402F09105021995DC
:10120000FF91EF91BF91AF919F918F917F916F91DE
:101210005F914F913F912F910F900BBE0F900FBE9A
:101220000F901F9018951F920F920FB60F921124D6
:101230000BB60F922F933F934F935F936F937F93D0
:101240008F939F93AF93BF93EF93FF938DE593E0BD
:101250000E940404FF91EF91BF91AF919F918F91F4
:101260007F916F915F914F913F912F910F900BBEA6
:101270000F900FBE0F901F9018951F920F920FB6F0
:101280000F9211240BB60F922F938F939F93EF938E
:10129000FF93E0916D03F0916E038081E091730301
:1012A000F091740382FD1DC09081809176038F5F61
:1012B0008F7320917703821741F0E0917603F0E07D
:1012C000E35AFC4F958F80937603FF91EF919F91A6
:1012D0008F912F910F900BBE0F900FBE0F901F900C
:1012E00018958081F2CF1F920F920FB60F921124A2
:1012F0000BB60F922F933F934F935F936F937F9310
:101300008F939F93AF93BF93EF93FF93E09100046C
:10131000F0910104309749F0A685B7858585968DB3
:1013200091FF16C09C918923B1F4FF91EF91BF9179
:10133000AF919F918F917F916F915F914F913F916D
:101340002F910F900BBE0F900FBE0F901F9018950E
:101350009C91892351F7A389B4899C9185898095B3
:1013600089238C93868997890197F1F7608D718D18
:10137000A685B785558538E020E0CB010197F1F7C8
:10138000822F90E095958795282F4C91452309F061
:101390002068315091F7868D81FD209580919B02C8
:1013A00090E001968F73992730919A02381799F03F
:1013B000A0919B02B0E0A65ABD4F2C9380939B0254
:1013C000828D938D0197F1F7A389B4898C919589CA
:1013D000892B8C93AACF868D8160868FF1CFCF9297
:1013E000DF92EF92FF920F931F93E82FF92F05C022
:1013F000015011092109310961F190819623941757
:10140000B9F305C0015011092109310911F1908189
:1014100096239413F7CFC12CD12CE12CF12C0AC0C8
:101420008FEFC81AD80AE80AF80A0C151D052E0510
:101430003F0579F080818623841791F36C2D7D2DF3
:101440008E2D9F2D1F910F91FF90EF90DF90CF90E9
:10145000089560E070E080E090E01F910F91FF90B0
:10146000EF90DF90CF9008958AEF93E00E941007ED
:101470008CE292E090930304809302048091000434
:10148000909101048250944071F4E0911504F09120
:10149000160490818091170480958923808310928F
:1014A00001041092000408951092600310925F03EB
:1014B00088EE93E0A0E0B0E0809361039093620334
:1014C000A0936303B09364032AE132E030935E0398
:1014D00020935D0325EC30E030936A032093690389
:1014E00024EC30E030936C0320936B0320EC30E06D
:1014F00030936E0320936D0321EC30E03093700342
:1015000020936F0322EC30E0309372032093710339
:1015100026EC30E03093740320937303109276032B
:1015200010927703109278031092790310920504B9
:10153000109204048093060490930704A093080477
:10154000B09309048CE292E0909303048093020428
:10155000109219041092180410921B0410921A048D
:1015600010921D0410921C0410921F0410921E046D
:10157000609120046E7F6D7F60932004669561709A
:1015800081E0682785E30E94330261E085E30E94E1
:101590006102EBECF2E0E491E0931204E5E8F2E0A2
:1015A000E491F0E0EE0FFF1FEA5CFD4F859194910E
:1015B000909314048093130460E084E30E9461021A
:1015C0008091200481FD04C061E084E30E94330225
:1015D00084E380930E04EAECF2E0E491E0930F04DC
:1015E000E4E8F2E0E491F0E0EE0FFF1FE45EFD4F6F
:1015F0008591949190931104809310041092FB03B1
:101600001092FA031092FD031092FC031092FF0354
:101610001092FE038AEF93E00C946B07CF93DF9355
:10162000CDB7DEB761970FB6F894DEBF0FBECDBF62
:10163000789484B5826084BD84B5816084BD85B5AD
:10164000826085BD85B5816085BD80916E008160B9
:1016500080936E001092810080918100826080935F
:101660008100809181008160809381008091800061
:101670008160809380008091B10084608093B1008C
:101680008091B00081608093B00080919100826071
:10169000809391008091910081608093910080916E
:1016A00090008160809390008091A100826080937F
:1016B000A1008091A10081608093A1008091A00091
:1016C00081608093A000809121018260809321013C
:1016D00080912101816080932101809120018160AE
:1016E0008093200180917A00846080937A008091B9
:1016F0007A00826080937A0080917A008160809382
:101700007A0080917A00806880937A001092C100FC
:10171000E0916D03F0916E0382E08083E0916903B4
:10172000F0916A031082E0916B03F0916C0380E109
:10173000808310927503E0917103F091720386E04B
:101740008083E0916F03F0917003808180618083DA
:10175000E0916F03F0917003808188608083E09155
:101760006F03F0917003808180688083E0916F0344
:10177000F091700380818F7D80838DE392E00E94E1
:1017800069068AE392E00E94690610921D04109295
:101790001C0410921B0410921A0410921904109247
:1017A00018048DE991E090931F0480931E048091AA
:1017B0000E0496EF980F943048F02EEC280F24304A
:1017C00028F022EC280F283008F061C02DEB30E023
:1017D00030931904209318042BE931E030931B0453
:1017E00020931A042CE231E030931D0420931C0452
:1017F000943050F02EEC280F243030F022EC280FDB
:10180000F0E0E0E0283010F4E8E6F0E020819430E9
:1018100028F032EC380F383008F445C531E0232B7E
:10182000943048F09EEC980F943028F08E53F0E0FE
:10183000E0E0883010F4E8E6F0E0208320910E0428
:1018400036EF320F343008F430C58EEC820F84301E
:1018500008F42BC582EC820F883008F029C58DE68C
:1018600090E09093160480931504343008F023C55B
:101870002650330B81E001C0880F2A95EAF7809348
:10188000170480911E0490911F040197F1F7809135
:101890001C0490911D04892B49F1E0910004F09102
:1018A000010424E0E230F20709F1309739F0A3890E
:1018B000B4899C918589809589238C93809120049B
:1018C0008E7F8093200410929B0210929A0282E0F5
:1018D00094E09093010480930004E0911504F0914A
:1018E0001604808190911704892B808361E086E142
:1018F0000E94610260E087E10E94610284E090E062
:101900009093BA028093B90285E090E09093BC0274
:101910008093BB0286E090E09093B6028093B5027C
:1019200087E090E09093B8028093B70288E090E05F
:101930009093B2028093B10289E090E09093B40258
:101940008093B3028AE090E09093AE028093AD0260
:101950008BE090E09093B0028093AF0261E084E06E
:101960000E94610261E085E00E94610261E086E020
:101970000E94610261E087E00E94610261E088E00C
:101980000E94610261E089E00E94610261E08AE0F8
:101990000E94610261E08BE00E94610210923603B6
:1019A00010923503109238031092370310923A03C5
:1019B0001092390310923C0310923B0310922E03B5
:1019C00010922D031092300310922F0310923203C5
:1019D00010923103109234031092330310922403B7
:1019E00010922303109226031092250310922803CD
:1019F0001092270310922A031092290310922C03AD
:101A000010922B0310921A031092190310921C03C8
:101A100010921B0310921E0310921D0310922003BC
:101A200010921F03109222031092210310921003B0
:101A300010920F03109212031092110310921403CC
:101A400010921303109216031092150310921803AC
:101A500010921703109206031092050310920803C8
:101A60001092070310920A031092090310920C03BC
:101A700010920B0310920E0310920D0360E082E0AF
:101A80000E94610260E088E10E94610260E083E000
:101A90000E94610260E089E10E94610260E082E1EF
:101AA0000E94610260E08AE10E94610260E083E1DD
:101AB0000E94610260E08BE10E94610281E08093FC
:101AC000A1028093A2028093A3028093A402809338
:101AD000A50280939C0280939D0280939E02809336
:101AE0009F028093A00295E0E1EAF2E0DE01179602
:101AF00001900D929A95E1F795E0ECE9F2E0DE01B4
:101B00001C9601900D929A95E1F78093490385E028
:101B1000FE013796AAE4B3E001900D928A95E1F7B1
:101B200085E0FE013C96AFE4B3E001900D928A950A
:101B3000E1F71092F3021092F4021092F502109263
:101B4000F6021092F7021092F8021092F902109227
:101B5000FA021092FB021092FC021092FD02109207
:101B6000FE02109200031092FF02109202031092E4
:101B70000103109204031092030380E18CBB80E206
:101B80008CBB89E496E090930102809300028091DF
:101B90006A008C7F816080936A00EC9A81E596E010
:101BA000909303028093020280916A00837F846095
:101BB00080936A00ED9A89E596E090930B028093FA
:101BC0000A02809169008F73806480936900EB9AA8
:101BD00081E696E090930902809308028091690063
:101BE0008F7C806180936900EA9A0E9469034B01AF
:101BF0005C0148EEC42E43E0D42EE12CF12C0E946F
:101C00006903681979098A099B09683E734081054F
:101C10009105A8F331E0C31AD108E108F10848EEB4
:101C2000840E43E0941EA11CB11CC114D104E10434
:101C3000F10429F7212C312C90E8492E9EE3592EEE
:101C40002DEC822E2CEC922E2CE4A22E2EE3B22E22
:101C50003FE8632E33E0732E80914903882309F413
:101C60001FC381E592E00E94690682E094E00E9431
:101C70003905181619060CF001C182E090E00E94A7
:101C800060136C018CE392E0D6018C9311968C93D7
:101C900082E094E00E944F05F82E80E390E00E94DD
:101CA00076068F2D0F2C000C990B0E947606BFE252
:101CB000BF150CF0E3C0F9821A820091FE03109167
:101CC000FF030F5F1F4FB8018AEF93E00E941807D0
:101CD000882399F02091FA033091FB038091FE0351
:101CE0009091FF03BE016F5F7F4F820F931F0E9491
:101CF0006F151093FF030093FE03EFE3FE12BEC0C7
:101D000086E090E00E9460138C01DC0111961C9229
:101D10001E9213961C921E92129715961C921E925A
:101D200014970E946B078AEF93E00E94FB06E090F5
:101D3000FE03F090FF031A8219821C821B821E820E
:101D40001D82CE0101960E946B078091FE03909147
:101D5000FF03009769F1B1E0EB1AF1088E159F05BA
:101D600008F47C01E091FA03F091FB03EE0DFF1DF6
:101D70002081298B10826091FA037091FB03611519
:101D8000710509F4ADC2FB0101900020E9F731971C
:101D9000AF01461B570BCE0101960E944007809170
:101DA000FA039091FB03E80EF91EE989D701EC9341
:101DB000D8018D919C911197009709F4A0C2698177
:101DC0007A816115710509F498C212964D915C9162
:101DD0002D813E814217530708F48FC20E946F1570
:101DE0008D819E81F801958384831E821D82CE01A0
:101DF00001960E9410071A8219821C821B821E8281
:101E00001D82F801608171816115710531F0448195
:101E10005581CE0101960E9440078D819E810497D5
:101E200028F0E981FA81309709F080C21092A80267
:101E3000E8EAF2E060818DE593E00E9426048AE3FF
:101E400092E00E946906C8010E94FB0650E040E053
:101E50006CE372E08AEF93E00E94400701151105E0
:101E600031F0C8010E941007C8010E94FC13C6018E
:101E70000E94FC13CE0101960E9410078FB7F894C0
:101E8000C0905503D0905603E0905703F09058034C
:101E90008FBF8091450390914603A0914703B09175
:101EA0004803A7019601281B390B4A0B5B0BDA018B
:101EB000C9014497A105B10508F4D6C185E592E0B2
:101EC0000E94690660E086E10E94330283E090E0B0
:101ED0000197F1F761E086E10E94330283E290E02E
:101EE0000197F1F760E086E10E943302EDEAF2E04B
:101EF0006491E7E6F2E08491E82FF0E0EE0FFF1F37
:101F0000E45EFD4F8591949100E412E42FE030E00F
:101F1000462F0E94EF092FB7F894809155039091B6
:101F20005603A0915703B09158032FBF2091A602EA
:101F30003091A702821B930B97FF03C09195819567
:101F4000910944970CF497C0EC987092010260924A
:101F50000002ED987092030260920202EB98709278
:101F60000B0260920A02EA987092090260920802DB
:101F700080914303909144039093360380933503FB
:101F800080914103909142039093380380933703EB
:101F900080913F039091400390933A0380933903DB
:101FA00080913D0390913E0390933C0380933B03CB
:101FB0001092440310924303109242031092410383
:101FC0001092400310923F0310923E0310923D0383
:101FD0002FB7F8948091550390915603A091570321
:101FE000B09158032FBF9093A7028093A6028091CF
:101FF0005003882369F029E436E0309301022093EE
:10200000000280916A008C7F816080936A00EC9A64
:1020100080915103882369F041E556E05093030213
:102020004093020280916A00837F846080936A00FB
:10203000ED9A80915203882369F089E596E09093A8
:102040000B0280930A02809169008F7380648093F1
:102050006900EB9A80915303882369F0A1E6B6E00A
:10206000B0930902A0930802809169008F7C80617F
:1020700080936900EA9A40912D0350912E0360915C
:1020800035037091360383E293E00E94730540911B
:102090002F0350913003609137037091380389E129
:1020A00093E00E9473054091310350913203609197
:1020B000390370913A038FE093E00E9473054091D9
:1020C00033035091340360913B0370913C0385E0EE
:1020D00093E00E9473052092F3023092F402409242
:1020E000F5025092F6022DEC3CEC4CEC5DE32093B3
:1020F000F7023093F8024093F9025093FA021092DB
:10210000FB021092FC021092FD021092FE0210924D
:10211000E1021092E2021092E3021092E402809235
:10212000E5029092E602A092E702B092E8021092D5
:10213000E9021092EA021092EB021092EC02109265
:10214000CF021092D0021092D1021092D20280924D
:10215000D3029092D402A092D502B092D6021092ED
:10216000D7021092D8021092D9021092DA0210927D
:10217000BD021092BE021092BF021092C002809265
:10218000C1029092C202A092C302B092C402109205
:10219000C5021092C6021092C7021092C80263E2F2
:1021A00073E083EF92E00E94D40569E173E081EE71
:1021B00092E00E94D4056FE073E08FEC92E00E9401
:1021C000D40565E073E08DEB92E00E94D405809128
:1021D0004A03882309F440C080914B03882361F0AF
:1021E0004091B9025091BA026091BB027091BC0259
:1021F00083EF92E00E948C0580914C03882361F06C
:102200004091B5025091B6026091B7027091B80248
:1022100081EE92E00E948C0580914D03882361F04D
:102220004091B1025091B2026091B3027091B40238
:102230008FEC92E00E948C0580914E03882361F020
:102240004091AD025091AE026091AF027091B00228
:102250008DEB92E00E948C05C0924503D09246031C
:10226000E0924703F09248038091A9029091AA025C
:10227000A091AB02B091AC02A7019601281B390BCB
:102280004A0B5B0BDA01C901C297A105B10540F009
:10229000C092A902D092AA02E092AB02F092AC02E4
:1022A0000E949304D9CC34E0BACA8BE690E0D9CA34
:1022B00090E080E0D6CA88E0223309F4E0CA84E0E6
:1022C000233309F4DCCA82E0243309F4D8CA82EC4F
:1022D000820F883018F42E53330BCCCA81E0CFCA5A
:1022E00089819A81009711F00E94FC131A82198249
:1022F0001E821D821C821B8252CD0E94FC1389818A
:102300009A81D80111969C938E938B819C81139610
:102310009C938E9312978D819E8115969C938E939C
:1023200014971A8219821C821B825FCD339682CD4C
:10233000E89409C097FB3EF490958095709561955F
:102340007F4F8F4F9F4F9923A9F0F92F96E9BB2715
:102350009395F695879577956795B795F111F8CF91
:10236000FAF4BB0F11F460FF1BC06F5F7F4F8F4FFC
:102370009F4F16C0882311F096E911C0772321F0F2
:102380009EE8872F762F05C0662371F096E8862F8A
:1023900070E060E02AF09A95660F771F881FDAF7E1
:1023A000880F9695879597F908950E94E8110C94E7
:1023B00059120E944B1238F00E94521220F09523BD
:1023C00011F00C9442120C94481211240C948D12AA
:1023D0000E946A1270F3959FC1F3950F50E0551F4C
:1023E000629FF001729FBB27F00DB11D639FAA276A
:1023F000F00DB11DAA1F649F6627B00DA11D661FB9
:10240000829F2227B00DA11D621F739FB00DA11DD9
:10241000621F839FA00D611D221F749F3327A00D93
:10242000611D231F849F600D211D822F762F6A2F2F
:1024300011249F5750409AF0F1F088234AF0EE0F94
:10244000FF1FBB1F661F771F881F91505040A9F7C1
:102450009E3F510580F00C9442120C948D125F3F08
:10246000E4F3983ED4F3869577956795B795F795FD
:10247000E7959F5FC1F7FE2B880F911D9695879575
:1024800097F9089597F99F6780E870E060E00895F4
:102490009FEF80EC089500240A941616170618067C
:1024A0000906089500240A94121613061406050658
:1024B0000895092E0394000C11F4882352F0BB0FE9
:1024C00040F4BF2B11F460FF04C06F5F7F4F8F4F4C
:1024D0009F4F089557FD9058440F551F59F05F3F87
:1024E00071F04795880F97FB991F61F09F3F79F036
:1024F00087950895121613061406551FF2CF4695B8
:10250000F1DF08C0161617061806991FF1CF869539
:102510007105610508940895E894BB27662777271D
:10252000CB0197F908955058BB27AA270E94AB12F8
:102530000C9459120E944B1238F00E94521220F053
:1025400039F49F3F19F426F40C9448120EF4E095E8
:10255000E7FB0C944212E92F0E946A1258F3BA1753
:10256000620773078407950720F079F4A6F50C94A9
:102570008C120EF4E0950B2EBA2FA02D0B01B90191
:1025800090010C01CA01A0011124FF27591B99F0E9
:10259000593F50F4503E68F11A16F040A22F232FF5
:1025A000342F4427585FF3CF469537952795A79545
:1025B000F0405395C9F77EF41F16BA0B620B730BEC
:1025C000840BBAF09150A1F0FF0FBB1F661F771F5D
:1025D000881FC2F70EC0BA0F621F731F841F48F412
:1025E000879577956795B795F7959E3F08F0B0CF9B
:1025F0009395880F08F09927EE0F97958795089582
:102600000E9407136894B1110C948D1208950E94D2
:10261000721288F09F5798F0B92F9927B751B0F0F0
:10262000E1F0660F771F881F991F1AF0BA95C9F756
:1026300014C0B13091F00E948C12B1E008950C9456
:102640008C12672F782F8827B85F39F0B93FCCF309
:10265000869577956795B395D9F73EF490958095D3
:10266000709561957F4F8F4F9F4F0895A1E21A2E6D
:10267000AA1BBB1BFD010DC0AA1FBB1FEE1FFF1F26
:10268000A217B307E407F50720F0A21BB30BE40B76
:10269000F50B661F771F881F991F1A9469F76095BD
:1026A0007095809590959B01AC01BD01CF01089577
:1026B000EE0FFF1F881F8BBF0790F691E02D199436
:1026C0000F931F93CF93DF938230910510F482E034
:1026D00090E0E0912304F091240430E020E0B0E0A9
:1026E000A0E0309799F42115310509F44AC0281B60
:1026F000390B24303105D8F58A819B81611571052C
:1027000089F1FB0193838283FE0111C040815181D5
:102710000281138148175907E0F04817590799F4C7
:10272000109761F012960C93129713961C933296A1
:10273000CF01DF91CF911F910F9108950093230452
:1027400010932404F4CF2115310551F0421753079B
:1027500038F0A901DB019A01BD01DF01F801C1CF09
:10276000EF01F9CF9093240480932304CDCFFE0191
:10277000E20FF31F8193919322503109398328830B
:10278000D7CF2091210430912204232B41F42091B2
:1027900012023091130230932204209321042091DD
:1027A0001002309111022115310541F42DB73EB7C9
:1027B0004091140250911502241B350BE091210425
:1027C000F0912204E217F307A0F42E1B3F0B281709
:1027D000390778F0AC014E5F5F4F2417350748F09A
:1027E0004E0F5F1F509322044093210481939193D5
:1027F0009FCFF0E0E0E09CCFCF93DF930097E9F02C
:10280000FC01329713821282A0912304B091240418
:10281000ED0130E020E01097A1F420813181820F9A
:10282000931F20912104309122042817390709F0C1
:1028300061C0F0932204E0932104DF91CF910895C9
:10284000EA01CE17DF07E8F54A815B819E01411559
:102850005105B1F7E901FB83EA8349915991C40F0E
:10286000D51FEC17FD0761F4808191810296840FDA
:10287000951FE90199838883828193819B838A8351
:10288000F0E0E0E012968D919C9113970097B9F5D6
:102890002D913C911197CD010296820F931F2091AB
:1028A0002104309122042817390739F6309751F561
:1028B0001092240410922304B0932204A0932104C4
:1028C000BCCFD383C28340815181840F951FC81729
:1028D000D90761F44E5F5F4F88819981480F591F76
:1028E000518340838A819B819383828321153105A3
:1028F00009F0B0CFF0932404E09323049ECFFD01B0
:10290000DC01C0CF13821282D7CF4F925F926F92B9
:102910007F928F929F92AF92BF92CF92DF92EF926F
:10292000FF920F931F93CF93DF938C01009799F43D
:10293000CB01DF91CF911F910F91FF90EF90DF902E
:10294000CF90BF90AF909F908F907F906F905F904F
:102950004F900C946013FC01E60FF71F9C0122506E
:102960003109E217F30708F4AEC0D901CD91DC912B
:102970001197C617D70720F1C530D10578F0CE01E1
:1029800004978617970750F0C61BD70B2297C19361
:10299000D1936D937C93CF010E94FC13C801DF910A
:1029A000CF911F910F91FF90EF90DF90CF90BF904C
:1029B000AF909F908F907F906F905F904F90089511
:1029C0005B01AC1ABD0A4C018C0E9D1EA091230424
:1029D000B0912404512C412CF12CE12C109731F5AD
:1029E00080912104909122048815990509F05CC01A
:1029F0004616570608F058C08091100290911102B7
:102A0000009741F48DB79EB7409114025091150282
:102A1000841B950BE817F90708F055C0F0932204C2
:102A2000E0932104F90171836083B8CF8D919C916B
:102A3000119712966C90129713967C901397A81585
:102A4000B90559F56C0142E0C40ED11CCA14DB046F
:102A500020F1AC014A195B09DA011296159780F052
:102A60006282738251834083D9016D937C93E11418
:102A7000F10471F0D7011396FC93EE9312978ECF69
:102A800022968C0F9D1FF90191838083F301EFCF74
:102A9000F0932404E093230481CF4816590608F4E8
:102AA0002C017D01D3019ACFCB010E9460137C01E0
:102AB000009749F0AE01B8010E946615C8010E9456
:102AC000FC1387016BCF10E000E068CFFB01DC0155
:102AD00002C001900D9241505040D8F70895FB017B
:102AE000DC0101900D920020E1F7089511E0CFE69E
:102AF000D1E000E006C0802FFE010E94581321960D
:102B0000011DC037D10780E00807A9F7F894FFCF6F
:102B10008F038F038F038F038F038F038F038F0325
:102B20000000250480000000000026049003BD037F
:102B30007304EE03CC03E00300000000DD04900307
:102B40007005DC0439054F05C4040D0A004D6567A6
:102B500061203235363020697320726561647921D5
:0A2B6000003132330061736400009D
:020000040003F7
:10E000000D9489F10D94B2F10D94B2F10D94B2F129
:10E010000D94B2F10D94B2F10D94B2F10D94B2F1F0
:10E020000D94B2F10D94B2F10D94B2F10D94B2F1E0
:10E030000D94B2F10D94B2F10D94B2F10D94B2F1D0
:10E040000D94B2F10D94B2F10D94B2F10D94B2F1C0
:10E050000D94B2F10D94B2F10D94B2F10D94B2F1B0
:10E060000D94B2F10D94B2F10D94B2F10D94B2F1A0
:10E070000D94B2F10D94B2F10D94B2F10D94B2F190
:10E080000D94B2F10D94B2F10D94B2F10D94B2F180
:10E090000D94B2F10D94B2F10D94B2F10D94B2F170
:10E0A0000D94B2F10D94B2F10D94B2F10D94B2F160
:10E0B0000D94B2F10D94B2F10D94B2F10D94B2F150
:10E0C0000D94B2F10D94B2F10D94B2F10D94B2F140
:10E0D0000D94B2F10D94B2F10D94B2F10D94B2F130
:10E0E0000D94B2F141546D656761323536300041AF
:10E0F000726475696E6F206578706C6F72657220DE
:10E1000073746B3530305632206279204D4C530099
:10E11000426F6F746C6F616465723E004875683F52
:10E1200000436F6D70696C6564206F6E203D200048
:10E130004350552054797065202020203D20005FF9
:10E140005F4156525F415243485F5F3D2000415658
:10E1500052204C696243205665723D20004743437C
:10E160002056657273696F6E203D20004350552024
:10E1700049442020202020203D20004C6F7720663D
:10E18000757365202020203D20004869676820665F
:10E190007573652020203D200045787420667573D6
:10E1A00065202020203D20004C6F636B2066757336
:10E1B000652020203D20004D617220203720323024
:10E1C000313300312E362E3800342E332E350056A2
:10E1D00023202020414444522020206F7020636F70
:10E1E00064652020202020696E73747275637469E1
:10E1F0006F6E2061646472202020496E74657272B3
:10E20000757074006E6F20766563746F7200726A49
:10E210006D702020006A6D70200057686174207056
:10E220006F72743A00506F7274206E6F7420737541
:10E2300070706F72746564004D7573742062652030
:10E2400061206C6574746572002000577269747483
:10E25000696E672045450052656164696E672045B7
:10E26000450045452065727220636E743D00504F35
:10E27000525400303D5A65726F2061646472003FF1
:10E280003D43505520737461747300403D454550C3
:10E29000524F4D207465737400423D426C696E6B41
:10E2A000204C454400453D44756D70204545505215
:10E2B0004F4D00463D44756D7020464C415348001B
:10E2C000483D48656C70004C3D4C69737420492F83
:10E2D0004F20506F72747300513D51756974005234
:10E2E0003D44756D702052414D00563D73686F7707
:10E2F00020696E7465727275707420566563746FF0
:10E30000727300593D506F727420626C696E6B00BD
:10E310002A0011241FBECFEFD1E2DEBFCDBF01E046
:10E320000CBF12E0A0E0B2E0EEE1FDEF03E00BBFB6
:10E3300002C007900D92A030B107D9F712E0A0E01B
:10E34000B2E001C01D92AE30B107E1F70F9460F367
:10E350000D948DFE01E20EBF0FEF0DBF11241FBE05
:10E360000D9460F30D9400F020E030E040ED57E0B4
:10E3700005C0FA013197F1F72F5F3F4F2817390792
:10E38000C0F308959C01260F311DC901A0E0B0E043
:10E390002F5F3F4FABBFFC018791882361F08093D3
:10E3A000C6008091C00086FFFCCF8091C0008064D1
:10E3B0008093C000EACF08958DE08093C6008091DD
:10E3C000C00086FFFCCF8091C00080648093C000B5
:10E3D0008AE08093C6008091C00086FFFCCF8091C8
:10E3E000C00080648093C00008950F94C2F10F9420
:10E3F000DCF10895FC019081992359F09093C600B7
:10E400008091C00086FFFCCF8091C0008064809323
:10E41000C0003196992379F70895282F982F929567
:10E420009F70892F805D8A3308F0895F8093C600D2
:10E430008091C00086FFFCCF8091C00080648093F3
:10E44000C000822F8F70982F905D9A3308F0995FEB
:10E450009093C6008091C00086FFFCCF8091C000E1
:10E4600080648093C00008959C01FB01853691056E
:10E470001CF46330710594F0C90164E670E00F94F8
:10E480002EFE605D7F4F6093C6008091C00086FFC6
:10E49000FCCF8091C00080648093C0002B30310598
:10E4A00014F43297B4F0C90164E670E00F942EFEC4
:10E4B0006AE070E00F942EFE605D7F4F6093C600AF
:10E4C0008091C00086FFFCCF8091C0008064809363
:10E4D000C000C9016AE070E00F942EFEC0968093E0
:10E4E000C6008091C00086FFFCCF8091C000806490
:10E4F0008093C00008951F93182F8EE692EE60E07F
:10E500000F94C2F11093C6008091C00086FFFCCF2B
:10E510008091C00080648093C0000F94DCF11F9153
:10E5200008952F923F924F925F926F927F928F92B7
:10E530009F92AF92BF92CF92DF92EF92FF920F9392
:10E540001F93DF93CF93CDB7DEB762970FB6F894E2
:10E55000DEBF0FBECDBF382E622ECA01DB015C01CB
:10E560006D01772420E2222E2E010894411C511CBB
:10E570008BC081E0A81680E0B80681E0C80680E084
:10E58000D80628F0C601AA27BB270F940DF2BB2797
:10E59000AD2D9C2D8B2D0F940DF28A2D0F940DF225
:10E5A0002092C6008091C00086FFFCCF8091C00001
:10E5B00080648093C0009DE29093C6008091C0006B
:10E5C00086FFFCCF8091C00080648093C0002092C1
:10E5D000C6008091C00086FFFCCF8091C00080649F
:10E5E0008093C00019828601750188249924A1E0D6
:10E5F0003A1651F03A1620F0B2E03B1661F409C029
:10E600000BBFF701779007C0C7010F9477FE782EF4
:10E6100002C0F7017080872D0F940DF22092C60082
:10E620008091C00086FFFCCF8091C0008064809301
:10E63000C000872D8052F401EF70F0708F3520F408
:10E64000E40DF51D708204C0E40DF51D8EE280839B
:10E650000894E11CF11C011D111D0894811C911CE2
:10E6600090E18916910409F0C2CF80E190E0A0E02A
:10E67000B0E0A80EB91ECA1EDB1E198AC2010F9493
:10E68000FAF10F94DCF16A94662009F072CF629679
:10E690000FB6F894DEBF0FBECDBFCF91DF911F91B3
:10E6A0000F91FF90EF90DF90CF90BF90AF909F9031
:10E6B0008F907F906F905F904F903F902F90089534
:10E6C0002F923F924F925F926F927F928F929F9282
:10E6D000AF92BF92CF92DF92EF92FF920F931F9370
:10E6E000DF93CF93CDB7DEB7CD53D1400FB6F894BB
:10E6F000DEBF0FBECDBF01E20EBF0FEF0DBF94B75F
:10E70000F894A89514BE80916000886180936000A1
:10E7100010926000789493FF05C0E0910002F091A0
:10E7200001021995279A2F9A8091C00082608093E8
:10E73000C00080E18093C40088E18093C1000000A4
:10E74000EE24FF24870144E0A42EB12CCC24DD2448
:10E7500024C0C5010197F1F70894E11CF11C011DCB
:10E76000111D21E2E2162EE4F20620E0020720E06D
:10E77000120718F031E0C32ED12CC801B70127ECE5
:10E780003BE140E050E00F9441FE611571058105C9
:10E79000910519F485B1805885B98091C00087FD35
:10E7A00003C0C114D104A9F2A6014F5F5F4FC25E3E
:10E7B000DE4F59834883CE51D140C25EDE4F8881FF
:10E7C0009981CE51D140019711F00D9410FEC05D9A
:10E7D000DE4F19821882C053D14060E0C15DDE4F28
:10E7E0001882CF52D14088249924C35DDE4F19820C
:10E7F0001882CD52D140C05EDE4F188219821A8233
:10E800001B82C052D140CE5CDE4F188219821A8220
:10E810001B82C253D140EE24FF2487010BBFF701B6
:10E8200007911691C45CDE4F19830883CC53D14005
:10E830000D940BFEC25EDE4F28813981CE51D1404E
:10E840002130310509F52091C600C25EDE4F1982E4
:10E850001882CE51D14022C02F5F3F4F4F4F5F4FA4
:10E86000213082E138078AE7480780E0580780F0C6
:10E87000C45CDE4FE881F981CC53D140EF5FFF4F9C
:10E8800019F0EE27FF27099420E030E040E050E047
:10E890008091C00087FFE0CF2091C600C35DDE4FAE
:10E8A00048815981CD52D1404F5F5F4FC35DDE4FEC
:10E8B00059834883CD52D140213209F063C64A3092
:10E8C000510508F05FC60894811C911C53E0851621
:10E8D000910409F059C600E010E018C081E280936D
:10E8E000C6008091C00086FFFCCF8091C00080648C
:10E8F0008093C0002F5F3F4F2931310579F70F9486
:10E90000DCF10F5F1F4F0530110519F020E030E0FA
:10E91000E5CF10920A0210920B0210920C02109294
:10E920000D02109206021092070210920802109235
:10E930000902109202021092030210920402109235
:10E9400005028FEE90EE60E00F94F5F180E191EE1C
:10E9500060E00F94C2F18091C00087FFFCCF9091DE
:10E96000C600903608F09F759032B8F09093C600BC
:10E970008091C00086FFFCCF8091C00080648093AE
:10E98000C000A0E2A093C6008091C00086FFFCCF2B
:10E990008091C00080648093C000983409F4D7C18E
:10E9A0009934B8F4923409F459C1933458F490333B
:10E9B00019F1903308F4E3C59F33A1F1903409F0C5
:10E9C000DEC5BDC0953409F470C1963409F0D7C5D1
:10E9D00098C1923509F42BC2933538F49C3409F46C
:10E9E000F5C1913509F0CBC518C2963509F445C279
:10E9F000993509F0C4C567C483E792EE62E00F94CD
:10EA0000F5F110920602109207021092080210927D
:10EA1000090210920A0210920B0210920C0210923C
:10EA20000D0213C18FE792EE62E00F94F5F18FEEC5
:10EA300090EE60E00F94F5F181E291EE60E00F94CA
:10EA4000C2F187EB91EE60E00F94F5F180E391EE77
:10EA500060E00F94C2F184EE90EE60E00F94F5F167
:10EA60008FE391EE60E00F94C2F186E090E061E008
:10EA700070E00F9434F20F94DCF18DE591EE60E0DC
:10EA80000F94C2F189EC91EE60E00F94F5F18EE401
:10EA900091EE60E00F94C2F183EC91EE60E00F9490
:10EAA000F5F18CE691EE60E00F94C2F18EE10F94E7
:10EAB0000DF288E90F940DF281E00F940DF20F949E
:10EAC000DCF18BE791EE60E00F94C2F119E0E0E039
:10EAD000F0E010935700E4918E2F0F940DF20F94F5
:10EAE000DCF18AE891EE60E00F94C2F1E3E0F0E03F
:10EAF00010935700E4918E2F0F940DF20F94DCF1D8
:10EB000089E991EE60E00F94C2F1E2E0F0E0109349
:10EB10005700E4918E2F0F940DF20F94DCF188EAE8
:10EB200091EE60E00F94C2F1E1E0F0E01093570045
:10EB30001491812F0F940DF20F94DCF107CF8BE825
:10EB400092EE62E00F94F5F18BE492EE60E00F94A8
:10EB5000F5F10F94DCF100E010E019C0C8016F2D51
:10EB60000F947FFEFF2031F489E492EE60E00F9471
:10EB7000C2F10BC0F092C6008091C00086FFFCCFAE
:10EB80008091C00080648093C0000F5F1F4FC80158
:10EB900081519F41A0E0B0E0ABBFFC01F790BAE229
:10EBA000FB1621F0E2E000301E07C1F60F94DCF105
:10EBB0000F94DCF187E592EE60E00F94F5F10F948D
:10EBC000DCF1CC24DD2400E010E01EC0C8010F946D
:10EBD00077FEF82E882331F489E492EE60E00F94FA
:10EBE000C2F10BC08093C6008091C00086FFFCCFAD
:10EBF0008091C00080648093C000FE1419F00894D6
:10EC0000C11CD11C0F5F1F4FC80181519F41A0E063
:10EC1000B0E0ABBFFC01E790FAE2EF1621F022E092
:10EC20000030120799F60F94DCF10F94DCF182E6C4
:10EC300092EE60E00F94C2F1C60161E070E00F94C3
:10EC400034F20F94DCF10F94DCF110920202109276
:10EC50000302109204021092050278CE89E992EE26
:10EC600062E00F94F5F1279A2F9A16C02F9880E052
:10EC700090E0E0EDF7E03197F1F7019684369105E9
:10EC8000C1F72F9A80E090E0E0EDF7E03197F1F7DF
:10EC9000019684369105C1F78091C00087FFE6CFC9
:10ECA0008091C00087FFFCCF64C485EA92EE62E0E9
:10ECB0000F94F5F140910202509103026091040219
:10ECC0007091050281E020E10F9491F2809102029F
:10ECD00090910302A0910402B091050280509F4FD1
:10ECE000AF4FBF4F8093020290930302A0930402A0
:10ECF000B093050280509041A040B04008F426CE69
:10ED0000A4CF83EB92EE62E00F94F5F140910602FE
:10ED100050910702609108027091090280E020E1A1
:10ED20000F9491F28091060290910702A09108023F
:10ED3000B091090280509F4FAF4FBF4F80930602A2
:10ED400090930702A0930802B0930902FFCD80ECD4
:10ED500092EE62E00F94F5F183E792EE60E00F949B
:10ED6000F5F18FE792EE60E00F94F5F18BE892EE0B
:10ED700060E00F94F5F189E992EE60E00F94F5F10F
:10ED800085EA92EE60E00F94F5F183EB92EE60E09D
:10ED90000F94F5F180EC92EE60E00F94F5F187ECC2
:10EDA00092EE60E00F94F5F188ED92EE60E00F9442
:10EDB000F5F18FED92EE60E00F94F5F18AEE92EEB0
:10EDC00060E00F94F5F183E093EEBDCD87EC92EE19
:10EDD00062E00F94F5F181E40F947BF282E40F94EA
:10EDE0007BF283E40F947BF284E40F947BF285E45E
:10EDF0000F947BF286E40F947BF287E40F947BF20E
:10EE000088E40F947BF28AE40F947BF28BE40F94F6
:10EE10007BF28CE40F947BF299CD88ED92EE62E068
:10EE20000F94F5F1772473948824992409C48FED05
:10EE300092EE62E00F94F5F140910A0250910B02BC
:10EE400060910C0270910D0282E020E10F9491F22A
:10EE500080910A0290910B02A0910C02B0910D02D8
:10EE600080509F4FAF4FBF4F80930A0290930B0289
:10EE7000A0930C02B0930D0269CD8AEE92EE62E08F
:10EE80000F94F5F184EE90EE60E00F94F5F18FECC5
:10EE900091EE60E00F94F5F1662477244301CC5D98
:10EEA000DE4F19821882C452D140D401C301B695F5
:10EEB000A79597958795CA5DDE4F88839983AA8326
:10EEC000BB83C652D140CC5DDE4FA881B981C4520C
:10EED000D1401196CC5DDE4FB983A883C452D14096
:10EEE000CD0162E070E00F9434F2B0E2B093C6005E
:10EEF0008091C00086FFFCCF8091C0008064809329
:10EF0000C000EDE2E093C6008091C00086FFFCCF18
:10EF10008091C00080648093C000F0E2F093C6004E
:10EF20008091C00086FFFCCF8091C00080648093F8
:10EF3000C000CA5DDE4FE880F9800A811B81C6529D
:10EF4000D140BB27A12F902F8F2D0F940DF2CA5DBA
:10EF5000DE4F8881C652D1400F940DF2B0E2FB2EF5
:10EF6000F092C6008091C00086FFFCCF8091C00067
:10EF700080648093C0000DE30093C6008091C000C0
:10EF800086FFFCCF8091C00080648093C00010E2B7
:10EF90001093C6008091C00086FFFCCF8091C00016
:10EFA00080648093C0008BBEF3012791C65DDE4F65
:10EFB0002883CA52D140A22EBB24CC24DD2408943D
:10EFC000611C711C811C911C8BBEF3018791282E42
:10EFD0003324442455240894611C711C811C911C09
:10EFE0008BBEF3013791C55DDE4F3883CB52D140E4
:10EFF0000894611C711C811C911C8BBEF30147910C
:10F00000C45DDE4F4883CC52D140ADEFEA2EAFEF66
:10F01000FA2EAFEF0A2FAFEF1A2F6E0C7F1C801E57
:10F02000911E142D032DF22CEE24EA0CFB1C0C1D5A
:10F030001D1D0F940DF220E22093C6008091C000A8
:10F0400086FFFCCF8091C00080648093C000C65DC5
:10F05000DE4F8881CA52D1400F940DF230E23093D6
:10F06000C6008091C00086FFFCCF8091C000806404
:10F070008093C000C45DDE4F8881CC52D1400F9494
:10F080000DF240E24093C6008091C00086FFFCCFA5
:10F090008091C00080648093C000C55DDE4F888190
:10F0A000CB52D1400F940DF250E25093C6008091A4
:10F0B000C00086FFFCCF8091C00080648093C000B8
:10F0C0008FEFE8168FEFF80680E0080780E018075A
:10F0D00031F484E092EE60E00F94C2F1DFC0D80119
:10F0E000C7018070907CA070B0708050904CA040A0
:10F0F000B040D1F52FEF3FE340E050E0E222F322B1
:10F1000004231523CA5DDE4FA880B980CA80DB8046
:10F11000C652D140AE0CBF1CC01ED11EAA0CBB1CD7
:10F12000CC1CDD1C8EE092EE60E00F94C2F1BB2798
:10F13000A12F902F8F2D0F940DF28E2D0F940DF285
:10F1400030E23093C6008091C00086FFFCCF8091F2
:10F15000C00080648093C0004EE34093C60080915D
:10F16000C00086FFFCCF87C08EE09EEFA0E0B0E03D
:10F17000E822F9220A231B239CE0E91694E9F90608
:10F1800090E0090790E0190709F088C0C45DDE4FE0
:10F19000A881CC52D140EA2EFF2400E010E0102FCD
:10F1A0000F2DFE2CEE24C55DDE4FB881CB52D14031
:10F1B000EB0EF11C011D111DD601C501817090706F
:10F1C000A070B070DC0199278827E80EF91E0A1F8D
:10F1D0001B1F20EF30E040E050E0A222B322C42207
:10F1E000D52241E1AA0CBB1CCC1CDD1C4A95D1F7F1
:10F1F000EA0CFB1C0C1D1D1D81E090E0A0E0B0E0BE
:10F20000282239224A225B2235E1220C331C441C7D
:10F21000551C3A95D1F7E20CF31C041D151D57013E
:10F220006801AA0CBB1CCC1CDD1C85E192EE60E0E1
:10F230000F94C2F1C801AA27BB270F940DF2BB2778
:10F24000A12F902F8F2D0F940DF28E2D0F940DF274
:10F2500090E29093C6008091C00086FFFCCF809121
:10F26000C00080648093C000AEE3A093C60080918C
:10F27000C00086FFFCCF8091C00080648093C000F6
:10F28000C601AA27BB270F940DF2BB27AD2D9C2DDD
:10F290008B2D0F940DF28A2D0F940DF20F94DCF14B
:10F2A000CC5DDE4FE881F981C452D140F99709F471
:10F2B0004DCBF4E0EF2EF12C012D112D6E0C7F1CA7
:10F2C000801E911EF2CD83E093EE62E00F94F5F183
:10F2D0008AE192EE60E00F94C2F18091C00087FF56
:10F2E000FCCF1091C6001F751093C6008091C0001E
:10F2F00086FFFCCF8091C00080648093C0000F9493
:10F30000DCF1812F81548A3108F036C1163409F4BA
:10F3100095C0173490F4133409F44EC0143430F40B
:10F320001134F1F0123409F01DC130C0143409F465
:10F3300059C0153409F016C16BC01A3409F4C4C0A1
:10F340001B3438F4173409F48FC0183409F00AC19B
:10F35000A1C01B3409F4D2C01C3409F003C1E8C0B9
:10F360008FEF81B90DC082B1809582B980E090E0C5
:10F37000E0EDF7E03197F1F70196883C9105C1F790
:10F380008091C00087FFEFCF12B8EFC08FEF84B934
:10F390000DC085B1809585B980E090E0E0EDF7E0A3
:10F3A0003197F1F70196883C9105C1F78091C00033
:10F3B00087FFEFCF15B8D9C08FEF87B90DC088B1DF
:10F3C000809588B980E090E0E0EDF7E03197F1F7C3
:10F3D0000196883C9105C1F78091C00087FFEFCF6F
:10F3E00018B8C3C08FEF8AB90DC08BB180958BB9A7
:10F3F00080E090E0E0EDF7E03197F1F70196883C8E
:10F400009105C1F78091C00087FFEFCF1BB8ADC059
:10F410008FEF8DB90DC08EB180958EB980E090E0F0
:10F42000E0EDF7E03197F1F70196883C9105C1F7DF
:10F430008091C00087FFEFCF1EB897C08FEF80BBD1
:10F440000DC081B3809581BB80E090E0E0EDF7E0F6
:10F450003197F1F70196883C9105C1F78091C00082
:10F4600087FFEFCF11BA81C08FEF83BB0DC084B38C
:10F47000809584BB80E090E0E0EDF7E03197F1F714
:10F480000196883C9105C1F78091C00087FFEFCFBE
:10F4900014BA6BC08FEF809301010FC080910201FD
:10F4A00080958093020180E090E0E0EDF7E03197F5
:10F4B000F1F70196883C9105C1F78091C00087FF64
:10F4C000EDCF1092020151C08FEF809304010FC065
:10F4D0008091050180958093050180E090E0E0ED4A
:10F4E000F7E03197F1F70196883C9105C1F78091DB
:10F4F000C00087FFEDCF1092050137C08FEF8093DA
:10F5000007010FC08091080180958093080180E079
:10F5100090E0E0EDF7E03197F1F70196883C910536
:10F52000C1F78091C00087FFEDCF109208011DC088
:10F530008FEF80930A010FC080910B01809580931B
:10F540000B0180E090E0E0EDF7E03197F1F70196F4
:10F55000883C9105C1F78091C00087FFEDCF1092E4
:10F560000B0103C085E292EEEEC98091C00087FFD7
:10F57000FCCF8091C600EAC988E392EEE4C98CE131
:10F5800091EEE1C988249924933011F1943028F444
:10F59000913089F09230B8F408C0953061F195301F
:10F5A000F0F0963009F048C043C02B3109F042C951
:10F5B00091E06BE13FC96227C15DDE4F2883CF52E6
:10F5C000D14092E037C9B22FA0E0622793E032C960
:10F5D000822F90E0A82BB92B622794E02BC92E3004
:10F5E00009F039C3622795E0C05DDE4F19821882A9
:10F5F000C053D1401FC9E1E0F0E0EC0FFD1FC05D3A
:10F60000DE4F08811981C053D140E00FF11F2083E4
:10F610000F5F1F4FC05DDE4F19830883C053D14079
:10F6200062270A171B0709F005C9D80196E002C92D
:10F63000261709F010C303C0973009F0FBC87724E0
:10F640009981933109F412C19431C8F4963009F4C8
:10F65000D8C0973050F4923009F406C1933009F4C1
:10F660006DC0913009F059C253C0913109F477C08F
:10F67000923108F0BBC0903109F04FC2F5C098310B
:10F6800009F487C0993150F4953109F4EFC09531F0
:10F6900008F4C6C1963109F040C2C2C19A3109F4DA
:10F6A0006CC09A3108F491C09B3109F45BC09D3164
:10F6B00009F033C29D81903359F48F81882311F46E
:10F6C0009EE11CC0813011F091E018C098E916C08D
:10F6D000892F807591F0903539F4E0E0F0E089E011
:10F6E0008093570094910AC0983539F4E3E0F0E034
:10F6F00089E080935700949101C090E01A821B82A8
:10F700008D818C831D829E831F8227E030E009C299
:10F710001A8288E08B8381E48C8386E58D8382E581
:10F720008E8389E48F8383E5888780E589878FE5E9
:10F730008A8782E38B872BE030E0F3C18A818139AD
:10F7400041F0823941F0803911F48FE005C080E04A
:10F7500003C082E001C08AE01A828B8344C0772410
:10F76000739482C08D81882311F48EE12CC0813086
:10F7700011F081E028C088E926C01A82E1E0F0E0BB
:10F7800089E08093570084918B831C8224E030E0D1
:10F79000C8C18B81803589F48C81883039F4E2E0EE
:10F7A000F0E089E08093570084910DC0E0E0F0E044
:10F7B00089E080935700849106C0E3E0F0E089E09F
:10F7C0008093570084911A82DFCF8D81836C99E0FA
:10F7D000E1E0F0E0082E90935700E89507B600FCB2
:10F7E000FDCF1A821B8223E030E09BC180EC8A832C
:10F7F000CE5CDE4F188219821A821B82C253D1401E
:10F800008EC18A8190E0A0E0B0E0582F44273327D2
:10F8100022278B8190E0A0E0B0E0DC0199278827C7
:10F82000282B392B4A2B5B2B8D8190E0A0E0B0E098
:10F83000282B392B4A2B5B2B8C8190E0A0E0B0E089
:10F84000BA2FA92F982F8827282B392B4A2B5B2BCF
:10F85000220F331F441F551FC05EDE4F288339839C
:10F860004A835B83C052D1401A8259C13A81C95C34
:10F87000DE4F3883C753D140CA5CDE4F1882C6536F
:10F88000D1408B81C82EDD24CA5CDE4F488159816E
:10F89000C653D140C42AD52A933109F082C0CE5C28
:10F8A000DE4F88819981AA81BB81C253D1408050AB
:10F8B000904CA340B04030F583E0CE5CDE4FE88052
:10F8C000F9800A811B81C253D140F70100935B008C
:10F8D00080935700E89507B600FCFDCFCE5CDE4F65
:10F8E000088119812A813B81C253D14000501F4FAA
:10F8F0002F4F3F4FCE5CDE4F088319832A833B8313
:10F90000C253D140C05EDE4F488159816A817B81FC
:10F91000C052D140DE011B9631E08C9111962C91A2
:10F9200011971296C75CDE4F2883C953D140C85C3B
:10F93000DE4F1882C853D14090E0C85CDE4FE881AA
:10F94000F981C853D1408E2B9F2B0C01FA01609393
:10F950005B0030935700E89511244E5F5F4F6F4F67
:10F960007F4F0EEFE02E0FEFF02ECE0CDF1CC114F8
:10F97000D10499F685E0C05EDE4F088119812A81A5
:10F980003B81C052D140F80120935B008093570027
:10F99000E89507B600FCFDCF81E180935700E8951C
:10F9A00035C0C05EDE4F88819981AA81BB81C0527B
:10F9B000D140B695A795979587957C018601ABE0D8
:10F9C000AA2EB12CAC0EBD1E0BC0D5016D915D01F0
:10F9D000C7010F947FFE0894E11CF11C01501040F8
:10F9E0000115110591F7A60160E070E0440F551F65
:10F9F000661F771FC05EDE4FE880F9800A811B8199
:10FA0000C052D1404E0D5F1D601F711F1A82C05E33
:10FA1000DE4F488359836A837B83C052D1407FC0C5
:10FA2000FA80C55CDE4FF882CB53D140C65CDE4F16
:10FA30001882CA53D1408B81C82EDD24C65CDE4FAC
:10FA400008811981CA53D140C02AD12A1A828981DA
:10FA5000BE016D5F7F4F843121F59601C05EDE4FA0
:10FA6000E880F9800A811B81C052D1400BBFF701A9
:10FA700087919691DB018C9311969C936E5F7F4FDB
:10FA8000D801C7010296A11DB11DC05EDE4F88835B
:10FA90009983AA83BB83C052D14022503040F1F6F3
:10FAA00036C0C05EDE4F288139814A815B81C052F9
:10FAB000D1400894C108D108760100E010E0089414
:10FAC000C11CD11C0894E11CF11C011D111DE20E8A
:10FAD000F31E041F151F21BDBB27A52F942F832FB5
:10FAE00082BD2F5F3F4F4F4F5F4FF89A80B5DB01CC
:10FAF0008D93BD012E153F054007510761F7C05E8C
:10FB0000DE4F288339834A835B83C052D1409601FC
:10FB10002D5F3F4FFB01108204C080EC8A8322E0FE
:10FB200030E08BE18093C6008091C00086FFFCCF5F
:10FB30008091C00080648093C000C15DDE4FF88179
:10FB4000CF52D140F093C6008091C00086FFFCCF19
:10FB50008091C00080648093C000432F3093C60022
:10FB60008091C00086FFFCCF8091C00080648093AC
:10FB7000C000922F2093C6008091C00086FFFCCF6A
:10FB80008091C00080648093C0008EE08093C600A6
:10FB90008091C00086FFFCCF8091C000806480937C
:10FBA000C00065E1C15DDE4FE880CF52D1406E25D7
:10FBB00069276427FE01319610C090819093C6009A
:10FBC0008091C00086FFFCCF31968091C000806498
:10FBD0008093C0006927215030402115310569F715
:10FBE0006093C6008091C00086FFFCCF8091C0006A
:10FBF00080648093C00085B1805885B9772081F4F6
:10FC0000C15DDE4F0881CF52D1400F5FC15DDE4F35
:10FC10000883CF52D14090E0A0E0B0E00D941AF4F8
:10FC200027982F9880E090E020ED37E0F901319798
:10FC3000F1F7019684369105C9F700008091C00064
:10FC40008D7F8093C00081E180935700E895EE2777
:10FC5000FF270994FFCF90E00D941AF497FB092E2B
:10FC600007260AD077FD04D02ED006D000201AF443
:10FC7000709561957F4F0895F6F7909581959F4F08
:10FC80000895A1E21A2EAA1BBB1BFD010DC0AA1FDD
:10FC9000BB1FEE1FFF1FA217B307E407F50720F0F5
:10FCA000A21BB30BE40BF50B661F771F881F991F70
:10FCB0001A9469F760957095809590959B01AC01B9
:10FCC000BD01CF010895AA1BBB1B51E107C0AA1FAC
:10FCD000BB1FA617B70710F0A61BB70B881F991FED
:10FCE0005A95A9F780959095BC01CD010895F99991
:10FCF000FECF92BD81BDF89A992780B50895262F31
:10FD0000F999FECF1FBA92BD81BD20BD0FB6F89400
:0EFD1000FA9AF99A0FBE01960895F894FFCF63
:00000001FF
