:100000000C9459010C94FA060C94CF060C94A40697
:100010000C9479060C944E060C9423060C94F80567
:100020000C94CD050C948A010C948A010C948A01DD
:100030000C948A010C948A010C948A010C948A0114
:100040000C948A010C948A010C948A010C948A0104
:100050000C948A010C948A010C948A010C948305F7
:100060000C948A010C944F070C9425070C948A0178
:100070000C948A010C948A010C948A010C948A01D4
:100080000C948A010C948A010C948A010C948A01C4
:100090000C948A010C948A010C948A010C948A01B4
:1000A0000C948A010C948A010C948A010C948A01A4
:1000B0000C948A010C948A010C948A010C948A0194
:1000C0000C948A010C948A010C948A010C948A0184
:1000D0000C948A010C948A010C948A010C948A0174
:1000E0000C948A010C94AA030C94E6030C94D70395
:1000F0000C94A9030C94FA030C9440040C948D0402
:100100000C94D3010C94E5010C94D7010C94F802E3
:100110000C94E1010C94B8010C94C5010C94C90134
:100120000C9443030C94DD010C9408040C94DE023F
:100130000C94EB010C942F030C94EE020C94B4017C
:100140000C94BC010C944D030C94BB020C94E6027D
:100150000C94B3020C94BF010C94D4020C941B03B6
:100160000C9439030C94CF010C94C0020C94EA0156
:100170000C94AA010C9420090C9402030C94B00175
:100180000C94CA020C94EF010C940C030C942503FC
:1001900000002100240027002A002D003000330039
:1001A00001010000040107010A01000022002500EE
:1001B00028002B002E003100340002010000050150
:1001C00008010B01000020002300260029002C005C
:1001D0002F0032000001000003010601090105059E
:1001E0000505070508080808020202020A0A0808AD
:1001F00004040404010101010101010103030303DB
:1002000003030303040707070C0C0C0C0C0C0C0C69
:100210000202020206060606060606060B0B0B0B7A
:100220000B0B0B0B0102102020080810204010209F
:1002300040800201020108040201010204081020AA
:1002400040808040201008040201800402018040A8
:100250002010080402010804020101020408102011
:100260004080010204081020408000000A0B0209AF
:100270000C0D0E0807030401000000000000000040
:10028000000000000000000000000000000000006E
:10029000000000000000121110000000000000002B
:1002A000000000000000000000000000000000004E
:1002B000200911241FBECFEFD1E2DEBFCDBF00E089
:1002C0000CBF12E0A0E0B2E0E2EFF2E100E00BBF11
:1002D00002C007900D92AA33B107D9F722E0AAE332
:1002E000B2E001C01D92AA3FB207E1F711E0C9E5F3
:1002F000D1E000E006C021970109802FFE010E9495
:100300006F09C835D10780E00807A9F70E94850763
:100310000C9477090C9400008150823108F05AC087
:10032000E82FF0E08827E856FE4F8F4F0C946F09B6
:10033000B801BC01AA01B001B401EA01BF01C501C5
:10034000C901CF01D301D701DD01E101EA01E501D6
:10035000EB01EF01809180008F77809380000895FA
:10036000809180008F7DF9CF80918000877FF5CFCD
:1003700084B58F7784BD089584B58F7DFBCF809140
:10038000B0008F778093B00008958091B0008F7D8A
:10039000F9CF809190008F7780939000089580919D
:1003A00090008F7DF9CF80919000877FF5CF80916D
:1003B000A0008F778093A00008958091A0008F7D8A
:1003C000F9CF8091A000877FF5CF809120018F77B2
:1003D000809320010895809120018F7DF9CF809135
:1003E0002001877FF5CFCF93DF93282F30E0F901ED
:1003F000E659FD4F8491F901EC5DFD4FD491F9016F
:10040000E252FE4FC491CC23A1F081110E948C01D5
:10041000EC2FF0E0EE0FFF1FEC53FE4FA591B491CF
:10042000EC91ED2381E090E009F480E0DF91CF9141
:10043000089580E090E0FACF1F93CF93DF93282FA9
:1004400030E0F901E659FD4F8491F901EC5DFD4F73
:10045000D491F901E252FE4FC491CC23A9F0162F9A
:1004600081110E948C01EC2FF0E0EE0FFF1FE6558A
:10047000FE4FA591B4918FB7F894EC91111108C07B
:10048000D095DE23DC938FBFDF91CF911F9108952C
:10049000DE2BF8CFCF93DF9390E0FC01EC5DFD4FB6
:1004A000249182529E4FFC0184918823D1F090E0E8
:1004B000880F991FFC01E057FE4FA591B491FC01F4
:1004C000E655FE4FC591D49161110EC09FB7F894C7
:1004D0008C91E22FE0958E238C932881E223E88390
:1004E0009FBFDF91CF9108958FB7F894EC91E22BE5
:1004F000EC938FBFF6CF1F93CF93DF93182FEB01B1
:1005000061E00E944A02209739F460E0812FDF9178
:10051000CF911F910C941C02CF3FD10511F461E0E3
:10052000F5CFE12FF0E0E659FD4FE491E150E231E3
:1005300008F0B3C0F0E08827EF55FD4F8F4F0C94C3
:100540006F09B302BB02C002CA02D4024D03DE022D
:10055000E602EE02F80202030C031B0325034D031F
:100560002F033903430384B5806884BDC7BDDF9181
:10057000CF911F91089584B5806284BDC8BDF7CF27
:1005800080918000806880938000D0938900C09320
:100590008800EDCF80918000806280938000D093AE
:1005A0008B00C0938A00E3CF8091800088608093A5
:1005B0008000D0938D00C0938C00D9CF8091B00083
:1005C00080688093B000C093B300D1CF8091B00019
:1005D00080628093B000C093B400C9CF8091900036
:1005E000806880939000D0939900C0939800BFCF0B
:1005F00080919000806280939000D0939B00C09384
:100600009A00B5CF80919000886080939000D0933D
:100610009D00C0939C00ABCF8091A0008068809328
:10062000A0008091A0008F7B8093A000D093A900B0
:10063000C093A8009CCF8091A00080628093A0000E
:10064000D093AB00C093AA0092CF8091A0008860A5
:100650008093A000D093AD00C093AC0088CF809170
:100660002001806880932001D0932901C093280144
:100670007ECF80912001806280932001D0932B0156
:10068000C0932A0174CF809120018860809320015B
:10069000D0932D01C0932C016ACFC038D1050CF046
:1006A0003ECF33CF3FB7F8948091590290915A02D0
:1006B000A0915B02B0915C0226B5A89B05C02F3FBC
:1006C00019F00196A11DB11D3FBFBA2FA92F982F78
:1006D0008827BC01CD01620F711D811D911D42E073
:1006E000660F771F881F991F4A95D1F708958F923B
:1006F0009F92AF92BF92CF92DF92EF92FF924B0107
:100700005C010E9452036B017C010E9452036C1930
:100710007D098E099F09683E734081059105A8F304
:1007200021E0821A9108A108B10888EEC80E83E082
:10073000D81EE11CF11C81149104A104B10429F715
:10074000FF90EF90DF90CF90BF90AF909F908F90F1
:1007500008950895AF92BF92CF92DF92EF92FF92E9
:100760000F931F93CF93DF936C017B018B01040FD9
:10077000151FEB015E01AE18BF08C017D10759F075
:100780006991D601ED91FC910190F081E02DC601B7
:100790001995892B79F7C501DF91CF911F910F91A1
:1007A000FF90EF90DF90CF90BF90AF900895FC0145
:1007B000538D448D252F30E0842F90E0821B930BC6
:1007C000541710F0CF96089501970895FC01918D6C
:1007D000828D981761F0A28DAE0FBF2FB11D5D966F
:1007E0008C91928D9F5F9F73928F90E008958FEF11
:1007F0009FEF0895FC01918D828D981731F0828DC5
:10080000E80FF11D858D90E008958FEF9FEF08951B
:10081000FC01918D228D892F90E0805C9F4F821B7F
:1008200091098F73992708958DE592E00E9408043D
:1008300021E0892B09F420E0822F0895FC01A48D8A
:10084000A80FB92FB11DA35ABF4F2C91848D90E0F2
:1008500001968F739927848FA689B7892C93A089D5
:10086000B1898C91837080648C93938D848D98135F
:1008700006C00288F389E02D80818F7D80830895F2
:10088000EF92FF920F931F93CF93DF93EC0181E0E0
:10089000888F9B8D8C8D98131AC0E889F989808187
:1008A00085FF15C09FB7F894EE89FF896083E889BA
:1008B000F98980818370806480839FBF81E090E0AC
:1008C000DF91CF911F910F91FF90EF900895F62E39
:1008D0000B8D10E00F5F1F4F0F731127E02E8C8DD3
:1008E0008E110CC00FB607FCFACFE889F989808118
:1008F00085FFF5CFCE010E941E04F1CFEB8DEC0FEA
:10090000FD2FF11DE35AFF4FF0829FB7F8940B8F34
:10091000EA89FB8980818062CFCFCF93DF93EC019E
:10092000888D8823B9F0AA89BB89E889F9898C91D7
:1009300085FD03C0808186FD0DC00FB607FCF7CF93
:100940008C9185FFF2CF808185FFEDCFCE010E9493
:100950001E04E9CFDF91CF91089580E090E0892BCC
:1009600029F00E94140481110E94000080E090E0B0
:10097000892B49F080E090E0892B29F00E9400004B
:1009800081110E94000080E090E0892B49F080E016
:1009900090E0892B29F00E94000081110E94000044
:1009A00080E090E0892B49F080E090E0892B29F0ED
:1009B0000E94000081110C94000008951F93CF93B2
:1009C000DF93EC01162F842F0E94F301019779F435
:1009D000812F0E94F30128813981892B79F42F5FBF
:1009E0003F4F39832883DF91CF911F910895812F45
:1009F0000E94F30128813981019789F3215031093F
:100A0000F0CF48E150E062E070E08AE492E00C94BC
:100A1000DE0449E150E063E070E088E492E00C9489
:100A2000DE04FC0101900020E9F73197AF01481B7B
:100A3000590BBC018DE592E00C94AA038F929F9212
:100A4000AF92BF920F931F93CF93DF93CDB7DEB7D3
:100A5000A1970FB6F894DEBF0FBECDBF19A24230EA
:100A600008F44AE08E010F5D1F4F842E912CB12CAB
:100A7000A12CA50194010E944D09E62FB901CA01DC
:100A8000EA30F4F4E05DD801EE938D01232B242BA2
:100A9000252B79F790E080E0109719F0CD010E94A6
:100AA0001105A1960FB6F894DEBF0FBECDBFDF9142
:100AB000CF911F910F91BF90AF909F908F9008950D
:100AC000E95CE1CFCF92DF92EF92FF92CF93DF9379
:100AD0006B017C016DE28DE592E00E944004EC0127
:100AE00066277727CB016C197D098E099F094AE09B
:100AF0000E941E058C0F9D1FDF91CF91FF90EF90FC
:100B0000DF90CF9008951F920F920FB60F9211248D
:100B10002F933F938F939F93AF93BF9380915502F1
:100B200090915602A0915702B09158023091540210
:100B300023E0230F2D3758F50196A11DB11D2093F9
:100B400054028093550290935602A0935702B0939B
:100B500058028091590290915A02A0915B02B09183
:100B60005C020196A11DB11D8093590290935A0217
:100B7000A0935B02B0935C02BF91AF919F918F9164
:100B80003F912F910F900FBE0F901F90189526E860
:100B9000230F0296A11DB11DD2CF1F920F920FB647
:100BA0000F9211240BB60F922F933F934F935F93A5
:100BB0006F937F938F939F93AF93BF93EF93FF9325
:100BC000E0910E02F0910F021995FF91EF91BF9104
:100BD000AF919F918F917F916F915F914F913F91D5
:100BE0002F910F900BBE0F900FBE0F901F90189576
:100BF0001F920F920FB60F9211240BB60F922F93E4
:100C00003F934F935F936F937F938F939F93AF9394
:100C1000BF93EF93FF93E0910C02F0910D021995B1
:100C2000FF91EF91BF91AF919F918F917F916F91C4
:100C30005F914F913F912F910F900BBE0F900FBE80
:100C40000F901F9018951F920F920FB60F921124BC
:100C50000BB60F922F933F934F935F936F937F93B6
:100C60008F939F93AF93BF93EF93FF93E091020213
:100C7000F09103021995FF91EF91BF91AF919F9170
:100C80008F917F916F915F914F913F912F910F9035
:100C90000BBE0F900FBE0F901F9018951F920F92D2
:100CA0000FB60F9211240BB60F922F933F934F93D1
:100CB0005F936F937F938F939F93AF93BF93EF93C4
:100CC000FF93E0910002F09101021995FF91EF91DD
:100CD000BF91AF919F918F917F916F915F914F9154
:100CE0003F912F910F900BBE0F900FBE0F901F9052
:100CF00018951F920F920FB60F9211240BB60F92F8
:100D00002F933F934F935F936F937F938F939F9313
:100D1000AF93BF93EF93FF93E0910A02F0910B0220
:100D20001995FF91EF91BF91AF919F918F917F9115
:100D30006F915F914F913F912F910F900BBE0F904C
:100D40000FBE0F901F9018951F920F920FB60F9223
:100D500011240BB60F922F933F934F935F936F9392
:100D60007F938F939F93AF93BF93EF93FF93E09104
:100D70000802F09109021995FF91EF91BF91AF918F
:100D80009F918F917F916F915F914F913F912F91A3
:100D90000F900BBE0F900FBE0F901F9018951F92D3
:100DA0000F920FB60F9211240BB60F922F933F9311
:100DB0004F935F936F937F938F939F93AF93BF9363
:100DC000EF93FF93E0910602F09107021995FF91CE
:100DD000EF91BF91AF919F918F917F916F915F91B3
:100DE0004F913F912F910F900BBE0F900FBE0F9020
:100DF0001F9018951F920F920FB60F9211240BB6E9
:100E00000F922F933F934F935F936F937F938F93A3
:100E10009F93AF93BF93EF93FF93E0910402F09100
:100E200005021995FF91EF91BF91AF919F918F911D
:100E30007F916F915F914F913F912F910F900BBEDA
:100E40000F900FBE0F901F9018951F920F920FB624
:100E50000F9211240BB60F922F933F934F935F93F2
:100E60006F937F938F939F93AF93BF93EF93FF9372
:100E70008DE592E00E941E04FF91EF91BF91AF912A
:100E80009F918F917F916F915F914F913F912F91A2
:100E90000F900BBE0F900FBE0F901F9018951F92D2
:100EA0000F920FB60F9211240BB60F922F938F93C0
:100EB0009F93EF93FF93E0916D02F0916E0280811A
:100EC000E0917302F091740282FD1DC090818091C7
:100ED00076028F5F8F7320917702821741F0E09145
:100EE0007602F0E0E35AFD4F958F80937602FF91F2
:100EF000EF919F918F912F910F900BBE0F900FBE8E
:100F00000F901F9018958081F2CFCF93DF93CDB7CC
:100F1000DEB72C970FB6F894DEBF0FBECDBF789426
:100F200084B5826084BD84B5816084BD85B58260EE
:100F300085BD85B5816085BD80916E00816080939F
:100F40006E00109281008091810082608093810008
:100F50008091810081608093810080918000816018
:100F6000809380008091B10084608093B100809173
:100F7000B00081608093B000809191008260809386
:100F80009100809191008160809391008091900008
:100F90008160809390008091A10082608093A10085
:100FA0008091A10081608093A1008091A000816068
:100FB0008093A00080912101826080932101809123
:100FC00021018160809321018091200181608093C3
:100FD000200180917A00846080937A0080917A0069
:100FE000826080937A0080917A00816080937A0099
:100FF00080917A00806880937A001092C100E0911D
:101000006D02F0916E0282E08083E0916902F091BE
:101010006A021082E0916B02F0916C0210E1108381
:1010200010927502E0917102F091720286E0808365
:10103000E0916F02F0917002808180618083E09185
:101040006F02F0917002808188608083E0916F026E
:10105000F0917002808180688083E0916F02F0914E
:10106000700280818F7D808382E292E00E94110570
:1010700086E392E00E94110561E086E10E944A0247
:1010800060E087E10E944A0284E0E82EF12CF092B1
:101090005102E092500285E090E0909353028093D9
:1010A000520261E084E00E944A0261E085E00E9411
:1010B0004A0281E090E0909341028093400282E0F6
:1010C00090E090934302809342028DE491E09093EC
:1010D000450280934402F0924702E092460260E0AB
:1010E00082E00E944A0260E088E10E944A021CBB42
:1010F00080E28CBB68EB7BE080E090E00E947703AD
:10110000C0904C02D0904D02E0904E02F0904F0201
:1011100009EA13E08091500290915102A09152028D
:10112000B09153028F839887A987BA87C982DA82E0
:10113000EB82FC82B98466E970E08F810E947B02B9
:1011400070E060E08B2D0E947B02BB8062E370E068
:1011500089810E947B0270E060E08B2D0E947B02FF
:101160002FB7F8948091550290915602A0915702A2
:10117000B09158022FBF20913E0230913F02821B56
:10118000930B97FF03C091958195910944978CF13A
:10119000EC981093010200930002ED981093030263
:1011A0000093020280914A0290914B029093410277
:1011B00080934002809148029091490290934302AB
:1011C0008093420210924B0210924A0210924902FE
:1011D000109248022FB7F8948091550290915602D0
:1011E000A0915702B09158022FBF90933F02809375
:1011F0003E024AE060E070E0CB010E941E0587E3FA
:1012000092E00E94110586E392E00E941105609130
:10121000400270914102072E000C880B990B97FF3A
:101220000BC00E94620564E670E080E090E00E94DE
:1012300077030E94AD046ECF4AE00E941E05F3CFF3
:10124000EDE5F2E01382128288EE93E0A0E0B0E0D8
:1012500084839583A683B78384E192E0918380831E
:1012600085EC90E09587848784EC90E0978786876B
:1012700080EC90E0918B808B81EC90E0938B828B63
:1012800082EC90E0958B848B86EC90E0978B868B3C
:10129000118E128E138E148E0895A1E21A2EAA1B9F
:1012A000BB1BFD010DC0AA1FBB1FEE1FFF1FA21716
:1012B000B307E407F50720F0A21BB30BE40BF50B13
:1012C000661F771F881F991F1A9469F7609570959C
:1012D000809590959B01AC01BD01CF010895EE0F63
:1012E000FF1F881F8BBF0790F691E02D1994F8948B
:0212F000FFCF2E
:1012F200A903A903A903A903A903A903A903A9038C
:10130200000000004004AA03D7038D040804E6038A
:10131200FA034D65676120323536302069732072D9
:0A1322006561647921000D0A0000E6
:00000001FF
